{
	"contracts/FundMe.sol": {
		"FundMe": {
			"abi": [
				{
					"inputs": [
						{
							"internalType": "address",
							"name": "funder",
							"type": "address"
						}
					],
					"name": "addressToAmoundFunded",
					"outputs": [
						{
							"internalType": "uint256",
							"name": "amountFunded",
							"type": "uint256"
						}
					],
					"stateMutability": "view",
					"type": "function"
				},
				{
					"inputs": [],
					"name": "fund",
					"outputs": [],
					"stateMutability": "payable",
					"type": "function"
				},
				{
					"inputs": [
						{
							"internalType": "uint256",
							"name": "ethAmount",
							"type": "uint256"
						}
					],
					"name": "getConversionRate",
					"outputs": [
						{
							"internalType": "uint256",
							"name": "",
							"type": "uint256"
						}
					],
					"stateMutability": "view",
					"type": "function"
				},
				{
					"inputs": [],
					"name": "getPrice",
					"outputs": [
						{
							"internalType": "uint256",
							"name": "",
							"type": "uint256"
						}
					],
					"stateMutability": "view",
					"type": "function"
				},
				{
					"inputs": [],
					"name": "getVersion",
					"outputs": [
						{
							"internalType": "uint256",
							"name": "",
							"type": "uint256"
						}
					],
					"stateMutability": "view",
					"type": "function"
				},
				{
					"inputs": [],
					"name": "minimumUsd",
					"outputs": [
						{
							"internalType": "uint256",
							"name": "",
							"type": "uint256"
						}
					],
					"stateMutability": "view",
					"type": "function"
				}
			],
			"devdoc": {
				"kind": "dev",
				"methods": {},
				"version": 1
			},
			"evm": {
				"assembly": "    /* \"contracts/FundMe.sol\":179:1390  contract FundMe {... */\n  mstore(0x40, 0x80)\n    /* \"contracts/FundMe.sol\":233:237  5e18 */\n  0x4563918244f40000\n    /* \"contracts/FundMe.sol\":208:237  uint public minimumUsd = 5e18 */\n  0x00\n  sstore\n    /* \"contracts/FundMe.sol\":179:1390  contract FundMe {... */\n  callvalue\n  dup1\n  iszero\n  tag_1\n  jumpi\n  0x00\n  dup1\n  revert\ntag_1:\n  pop\n  dataSize(sub_0)\n  dup1\n  dataOffset(sub_0)\n  0x00\n  codecopy\n  0x00\n  return\nstop\n\nsub_0: assembly {\n        /* \"contracts/FundMe.sol\":179:1390  contract FundMe {... */\n      mstore(0x40, 0x80)\n      jumpi(tag_1, lt(calldatasize, 0x04))\n      shr(0xe0, calldataload(0x00))\n      dup1\n      0x098de820\n      eq\n      tag_2\n      jumpi\n      dup1\n      0x0d8e6e2c\n      eq\n      tag_3\n      jumpi\n      dup1\n      0x6a11f733\n      eq\n      tag_4\n      jumpi\n      dup1\n      0x6e5b6b28\n      eq\n      tag_5\n      jumpi\n      dup1\n      0x98d5fdca\n      eq\n      tag_6\n      jumpi\n      dup1\n      0xb60d4288\n      eq\n      tag_7\n      jumpi\n    tag_1:\n      0x00\n      dup1\n      revert\n        /* \"contracts/FundMe.sol\":208:237  uint public minimumUsd = 5e18 */\n    tag_2:\n      callvalue\n      dup1\n      iszero\n      tag_8\n      jumpi\n      0x00\n      dup1\n      revert\n    tag_8:\n      pop\n      tag_9\n      sload(0x00)\n      dup2\n      jump\n    tag_9:\n      mload(0x40)\n        /* \"#utility.yul\":160:185   */\n      swap1\n      dup2\n      mstore\n        /* \"#utility.yul\":148:150   */\n      0x20\n        /* \"#utility.yul\":133:151   */\n      add\n        /* \"contracts/FundMe.sol\":208:237  uint public minimumUsd = 5e18 */\n      mload(0x40)\n      dup1\n      swap2\n      sub\n      swap1\n      return\n        /* \"contracts/FundMe.sol\":1124:1328  function getVersion() public view returns (uint) {... */\n    tag_3:\n      callvalue\n      dup1\n      iszero\n      tag_13\n      jumpi\n      0x00\n      dup1\n      revert\n    tag_13:\n      pop\n      tag_9\n      tag_15\n      jump\t// in\n        /* \"contracts/FundMe.sol\":268:341  mapping(address funder => uint amountFunded) public addressToAmoundFunded */\n    tag_4:\n      callvalue\n      dup1\n      iszero\n      tag_17\n      jumpi\n      0x00\n      dup1\n      revert\n    tag_17:\n      pop\n      tag_9\n      tag_19\n      calldatasize\n      0x04\n      tag_20\n      jump\t// in\n    tag_19:\n      mstore(0x20, 0x02)\n      0x00\n      swap1\n      dup2\n      mstore\n      0x40\n      swap1\n      keccak256\n      sload\n      dup2\n      jump\n        /* \"contracts/FundMe.sol\":907:1116  function getConversionRate(uint ethAmount) public view returns (uint) {... */\n    tag_5:\n      callvalue\n      dup1\n      iszero\n      tag_23\n      jumpi\n      0x00\n      dup1\n      revert\n    tag_23:\n      pop\n      tag_9\n      tag_25\n      calldatasize\n      0x04\n      tag_26\n      jump\t// in\n    tag_25:\n      tag_27\n      jump\t// in\n        /* \"contracts/FundMe.sol\":577:899  function getPrice() public view returns (uint) {... */\n    tag_6:\n      callvalue\n      dup1\n      iszero\n      tag_29\n      jumpi\n      0x00\n      dup1\n      revert\n    tag_29:\n      pop\n      tag_9\n      tag_31\n      jump\t// in\n        /* \"contracts/FundMe.sol\":350:569  function fund() public payable {... */\n    tag_7:\n      tag_33\n      tag_34\n      jump\t// in\n    tag_33:\n      stop\n        /* \"contracts/FundMe.sol\":1124:1328  function getVersion() public view returns (uint) {... */\n    tag_15:\n        /* \"contracts/FundMe.sol\":1167:1171  uint */\n      0x00\n        /* \"contracts/FundMe.sol\":1184:1215  AggregatorV3Interface priceFeed */\n      dup1\n        /* \"contracts/FundMe.sol\":1240:1282  0x694AA1769357215DE4FAC081bf1f309aDC325306 */\n      0x694aa1769357215de4fac081bf1f309adc325306\n        /* \"contracts/FundMe.sol\":1184:1283  AggregatorV3Interface priceFeed = AggregatorV3Interface(0x694AA1769357215DE4FAC081bf1f309aDC325306) */\n      swap1\n      pop\n        /* \"contracts/FundMe.sol\":1301:1310  priceFeed */\n      dup1\n      sub(shl(0xa0, 0x01), 0x01)\n        /* \"contracts/FundMe.sol\":1301:1318  priceFeed.version */\n      and\n      0x54fd4d50\n        /* \"contracts/FundMe.sol\":1301:1320  priceFeed.version() */\n      mload(0x40)\n      dup2\n      0xffffffff\n      and\n      0xe0\n      shl\n      dup2\n      mstore\n      0x04\n      add\n      0x20\n      mload(0x40)\n      dup1\n      dup4\n      sub\n      dup2\n      dup7\n      gas\n      staticcall\n      iszero\n      dup1\n      iszero\n      tag_37\n      jumpi\n      returndatasize\n      0x00\n      dup1\n      returndatacopy\n      revert(0x00, returndatasize)\n    tag_37:\n      pop\n      pop\n      pop\n      pop\n      mload(0x40)\n      returndatasize\n      not(0x1f)\n      0x1f\n      dup3\n      add\n      and\n      dup3\n      add\n      dup1\n      0x40\n      mstore\n      pop\n      dup2\n      add\n      swap1\n      tag_38\n      swap2\n      swap1\n      tag_39\n      jump\t// in\n    tag_38:\n        /* \"contracts/FundMe.sol\":1294:1320  return priceFeed.version() */\n      swap2\n      pop\n      pop\n        /* \"contracts/FundMe.sol\":1124:1328  function getVersion() public view returns (uint) {... */\n      swap1\n      jump\t// out\n        /* \"contracts/FundMe.sol\":907:1116  function getConversionRate(uint ethAmount) public view returns (uint) {... */\n    tag_27:\n        /* \"contracts/FundMe.sol\":971:975  uint */\n      0x00\n        /* \"contracts/FundMe.sol\":988:1001  uint ethPrice */\n      dup1\n        /* \"contracts/FundMe.sol\":1004:1014  getPrice() */\n      tag_41\n        /* \"contracts/FundMe.sol\":1004:1012  getPrice */\n      tag_31\n        /* \"contracts/FundMe.sol\":1004:1014  getPrice() */\n      jump\t// in\n    tag_41:\n        /* \"contracts/FundMe.sol\":988:1014  uint ethPrice = getPrice() */\n      swap1\n      pop\n        /* \"contracts/FundMe.sol\":1025:1044  uint ethAmountInUsd */\n      0x00\n        /* \"contracts/FundMe.sol\":1072:1076  1e18 */\n      0x0de0b6b3a7640000\n        /* \"contracts/FundMe.sol\":1048:1068  ethPrice * ethAmount */\n      tag_42\n        /* \"contracts/FundMe.sol\":1059:1068  ethAmount */\n      dup6\n        /* \"contracts/FundMe.sol\":988:1014  uint ethPrice = getPrice() */\n      dup5\n        /* \"contracts/FundMe.sol\":1048:1068  ethPrice * ethAmount */\n      tag_43\n      jump\t// in\n    tag_42:\n        /* \"contracts/FundMe.sol\":1047:1076  (ethPrice * ethAmount) / 1e18 */\n      tag_44\n      swap2\n      swap1\n      tag_45\n      jump\t// in\n    tag_44:\n        /* \"contracts/FundMe.sol\":1025:1076  uint ethAmountInUsd = (ethPrice * ethAmount) / 1e18 */\n      swap5\n        /* \"contracts/FundMe.sol\":907:1116  function getConversionRate(uint ethAmount) public view returns (uint) {... */\n      swap4\n      pop\n      pop\n      pop\n      pop\n      jump\t// out\n        /* \"contracts/FundMe.sol\":577:899  function getPrice() public view returns (uint) {... */\n    tag_31:\n        /* \"contracts/FundMe.sol\":618:622  uint */\n      0x00\n        /* \"contracts/FundMe.sol\":690:721  AggregatorV3Interface priceFeed */\n      dup1\n        /* \"contracts/FundMe.sol\":746:788  0x694AA1769357215DE4FAC081bf1f309aDC325306 */\n      0x694aa1769357215de4fac081bf1f309adc325306\n        /* \"contracts/FundMe.sol\":690:789  AggregatorV3Interface priceFeed = AggregatorV3Interface(0x694AA1769357215DE4FAC081bf1f309aDC325306) */\n      swap1\n      pop\n        /* \"contracts/FundMe.sol\":803:816  int256 answer */\n      0x00\n        /* \"contracts/FundMe.sol\":825:834  priceFeed */\n      dup2\n      sub(shl(0xa0, 0x01), 0x01)\n        /* \"contracts/FundMe.sol\":825:850  priceFeed.latestRoundData */\n      and\n      0xfeaf968c\n        /* \"contracts/FundMe.sol\":825:852  priceFeed.latestRoundData() */\n      mload(0x40)\n      dup2\n      0xffffffff\n      and\n      0xe0\n      shl\n      dup2\n      mstore\n      0x04\n      add\n      0xa0\n      mload(0x40)\n      dup1\n      dup4\n      sub\n      dup2\n      dup7\n      gas\n      staticcall\n      iszero\n      dup1\n      iszero\n      tag_48\n      jumpi\n      returndatasize\n      0x00\n      dup1\n      returndatacopy\n      revert(0x00, returndatasize)\n    tag_48:\n      pop\n      pop\n      pop\n      pop\n      mload(0x40)\n      returndatasize\n      not(0x1f)\n      0x1f\n      dup3\n      add\n      and\n      dup3\n      add\n      dup1\n      0x40\n      mstore\n      pop\n      dup2\n      add\n      swap1\n      tag_49\n      swap2\n      swap1\n      tag_50\n      jump\t// in\n    tag_49:\n        /* \"contracts/FundMe.sol\":800:852  (, int256 answer, , ,) = priceFeed.latestRoundData() */\n      pop\n      pop\n      pop\n      swap2\n      pop\n      pop\n        /* \"contracts/FundMe.sol\":877:883  answer */\n      dup1\n        /* \"contracts/FundMe.sol\":886:890  1e10 */\n      0x02540be400\n        /* \"contracts/FundMe.sol\":877:890  answer * 1e10 */\n      tag_51\n      swap2\n      swap1\n      tag_52\n      jump\t// in\n    tag_51:\n        /* \"contracts/FundMe.sol\":865:891  return uint(answer * 1e10) */\n      swap3\n      pop\n      pop\n      pop\n        /* \"contracts/FundMe.sol\":577:899  function getPrice() public view returns (uint) {... */\n      swap1\n      jump\t// out\n        /* \"contracts/FundMe.sol\":350:569  function fund() public payable {... */\n    tag_34:\n        /* \"contracts/FundMe.sol\":432:442  minimumUsd */\n      sload(0x00)\n        /* \"contracts/FundMe.sol\":400:428  getConversionRate(msg.value) */\n      tag_54\n        /* \"contracts/FundMe.sol\":418:427  msg.value */\n      callvalue\n        /* \"contracts/FundMe.sol\":400:417  getConversionRate */\n      tag_27\n        /* \"contracts/FundMe.sol\":400:428  getConversionRate(msg.value) */\n      jump\t// in\n    tag_54:\n        /* \"contracts/FundMe.sol\":400:442  getConversionRate(msg.value) >= minimumUsd */\n      lt\n      iszero\n        /* \"contracts/FundMe.sol\":392:469  require(getConversionRate(msg.value) >= minimumUsd, \"didn't send enough ETH\") */\n      tag_55\n      jumpi\n      mload(0x40)\n      shl(0xe5, 0x461bcd)\n      dup2\n      mstore\n        /* \"#utility.yul\":2494:2496   */\n      0x20\n        /* \"contracts/FundMe.sol\":392:469  require(getConversionRate(msg.value) >= minimumUsd, \"didn't send enough ETH\") */\n      0x04\n      dup3\n      add\n        /* \"#utility.yul\":2476:2497   */\n      mstore\n        /* \"#utility.yul\":2533:2535   */\n      0x16\n        /* \"#utility.yul\":2513:2531   */\n      0x24\n      dup3\n      add\n        /* \"#utility.yul\":2506:2536   */\n      mstore\n      shl(0x53, 0x0c8d2c8dc4ee840e6cadcc840cadcdeeaced0408aa89)\n        /* \"#utility.yul\":2552:2570   */\n      0x44\n      dup3\n      add\n        /* \"#utility.yul\":2545:2597   */\n      mstore\n        /* \"#utility.yul\":2614:2632   */\n      0x64\n      add\n        /* \"contracts/FundMe.sol\":392:469  require(getConversionRate(msg.value) >= minimumUsd, \"didn't send enough ETH\") */\n      mload(0x40)\n      dup1\n      swap2\n      sub\n      swap1\n      revert\n    tag_55:\n        /* \"contracts/FundMe.sol\":480:487  funders */\n      0x01\n        /* \"contracts/FundMe.sol\":480:504  funders.push(msg.sender) */\n      dup1\n      sload\n      dup1\n      dup3\n      add\n      swap1\n      swap2\n      sstore\n      0xb10e2d527612073b26eecdfd717e6a320cf44b4afac2b0732d9fcbe2b7fa0cf6\n      add\n      dup1\n      sload\n      not(sub(shl(0xa0, 0x01), 0x01))\n      and\n        /* \"contracts/FundMe.sol\":493:503  msg.sender */\n      caller\n        /* \"contracts/FundMe.sol\":480:504  funders.push(msg.sender) */\n      swap1\n      dup2\n      or\n      swap1\n      swap2\n      sstore\n      0x00\n        /* \"contracts/FundMe.sol\":515:548  addressToAmoundFunded[msg.sender] */\n      swap1\n      dup2\n      mstore\n        /* \"contracts/FundMe.sol\":515:536  addressToAmoundFunded */\n      0x02\n        /* \"contracts/FundMe.sol\":480:504  funders.push(msg.sender) */\n      0x20\n        /* \"contracts/FundMe.sol\":515:548  addressToAmoundFunded[msg.sender] */\n      mstore\n      0x40\n      dup2\n      keccak256\n        /* \"contracts/FundMe.sol\":515:561  addressToAmoundFunded[msg.sender] += msg.value */\n      dup1\n      sload\n        /* \"contracts/FundMe.sol\":552:561  msg.value */\n      callvalue\n      swap3\n      swap1\n        /* \"contracts/FundMe.sol\":515:561  addressToAmoundFunded[msg.sender] += msg.value */\n      tag_59\n      swap1\n        /* \"contracts/FundMe.sol\":552:561  msg.value */\n      dup5\n      swap1\n        /* \"contracts/FundMe.sol\":515:561  addressToAmoundFunded[msg.sender] += msg.value */\n      tag_60\n      jump\t// in\n    tag_59:\n      swap1\n      swap2\n      sstore\n      pop\n      pop\n        /* \"contracts/FundMe.sol\":350:569  function fund() public payable {... */\n      jump\t// out\n        /* \"#utility.yul\":196:482   */\n    tag_20:\n        /* \"#utility.yul\":255:261   */\n      0x00\n        /* \"#utility.yul\":308:310   */\n      0x20\n        /* \"#utility.yul\":296:305   */\n      dup3\n        /* \"#utility.yul\":287:294   */\n      dup5\n        /* \"#utility.yul\":283:306   */\n      sub\n        /* \"#utility.yul\":279:311   */\n      slt\n        /* \"#utility.yul\":276:328   */\n      iszero\n      tag_66\n      jumpi\n        /* \"#utility.yul\":324:325   */\n      0x00\n        /* \"#utility.yul\":321:322   */\n      dup1\n        /* \"#utility.yul\":314:326   */\n      revert\n        /* \"#utility.yul\":276:328   */\n    tag_66:\n        /* \"#utility.yul\":350:373   */\n      dup2\n      calldataload\n      sub(shl(0xa0, 0x01), 0x01)\n        /* \"#utility.yul\":402:433   */\n      dup2\n      and\n        /* \"#utility.yul\":392:434   */\n      dup2\n      eq\n        /* \"#utility.yul\":382:452   */\n      tag_67\n      jumpi\n        /* \"#utility.yul\":448:449   */\n      0x00\n        /* \"#utility.yul\":445:446   */\n      dup1\n        /* \"#utility.yul\":438:450   */\n      revert\n        /* \"#utility.yul\":382:452   */\n    tag_67:\n        /* \"#utility.yul\":471:476   */\n      swap4\n        /* \"#utility.yul\":196:482   */\n      swap3\n      pop\n      pop\n      pop\n      jump\t// out\n        /* \"#utility.yul\":487:667   */\n    tag_26:\n        /* \"#utility.yul\":546:552   */\n      0x00\n        /* \"#utility.yul\":599:601   */\n      0x20\n        /* \"#utility.yul\":587:596   */\n      dup3\n        /* \"#utility.yul\":578:585   */\n      dup5\n        /* \"#utility.yul\":574:597   */\n      sub\n        /* \"#utility.yul\":570:602   */\n      slt\n        /* \"#utility.yul\":567:619   */\n      iszero\n      tag_69\n      jumpi\n        /* \"#utility.yul\":615:616   */\n      0x00\n        /* \"#utility.yul\":612:613   */\n      dup1\n        /* \"#utility.yul\":605:617   */\n      revert\n        /* \"#utility.yul\":567:619   */\n    tag_69:\n      pop\n        /* \"#utility.yul\":638:661   */\n      calldataload\n      swap2\n        /* \"#utility.yul\":487:667   */\n      swap1\n      pop\n      jump\t// out\n        /* \"#utility.yul\":672:856   */\n    tag_39:\n        /* \"#utility.yul\":742:748   */\n      0x00\n        /* \"#utility.yul\":795:797   */\n      0x20\n        /* \"#utility.yul\":783:792   */\n      dup3\n        /* \"#utility.yul\":774:781   */\n      dup5\n        /* \"#utility.yul\":770:793   */\n      sub\n        /* \"#utility.yul\":766:798   */\n      slt\n        /* \"#utility.yul\":763:815   */\n      iszero\n      tag_71\n      jumpi\n        /* \"#utility.yul\":811:812   */\n      0x00\n        /* \"#utility.yul\":808:809   */\n      dup1\n        /* \"#utility.yul\":801:813   */\n      revert\n        /* \"#utility.yul\":763:815   */\n    tag_71:\n      pop\n        /* \"#utility.yul\":834:850   */\n      mload\n      swap2\n        /* \"#utility.yul\":672:856   */\n      swap1\n      pop\n      jump\t// out\n        /* \"#utility.yul\":861:988   */\n    tag_61:\n        /* \"#utility.yul\":922:932   */\n      0x4e487b71\n        /* \"#utility.yul\":917:920   */\n      0xe0\n        /* \"#utility.yul\":913:933   */\n      shl\n        /* \"#utility.yul\":910:911   */\n      0x00\n        /* \"#utility.yul\":903:934   */\n      mstore\n        /* \"#utility.yul\":953:957   */\n      0x11\n        /* \"#utility.yul\":950:951   */\n      0x04\n        /* \"#utility.yul\":943:958   */\n      mstore\n        /* \"#utility.yul\":977:981   */\n      0x24\n        /* \"#utility.yul\":974:975   */\n      0x00\n        /* \"#utility.yul\":967:982   */\n      revert\n        /* \"#utility.yul\":993:1161   */\n    tag_43:\n        /* \"#utility.yul\":1066:1075   */\n      dup1\n      dup3\n      mul\n        /* \"#utility.yul\":1097:1106   */\n      dup2\n      iszero\n        /* \"#utility.yul\":1114:1129   */\n      dup3\n      dup3\n      div\n        /* \"#utility.yul\":1108:1130   */\n      dup5\n      eq\n        /* \"#utility.yul\":1094:1131   */\n      or\n        /* \"#utility.yul\":1084:1155   */\n      tag_75\n      jumpi\n        /* \"#utility.yul\":1135:1153   */\n      tag_75\n      tag_61\n      jump\t// in\n    tag_75:\n        /* \"#utility.yul\":993:1161   */\n      swap3\n      swap2\n      pop\n      pop\n      jump\t// out\n        /* \"#utility.yul\":1166:1383   */\n    tag_45:\n        /* \"#utility.yul\":1206:1207   */\n      0x00\n        /* \"#utility.yul\":1232:1233   */\n      dup3\n        /* \"#utility.yul\":1222:1354   */\n      tag_77\n      jumpi\n        /* \"#utility.yul\":1276:1286   */\n      0x4e487b71\n        /* \"#utility.yul\":1271:1274   */\n      0xe0\n        /* \"#utility.yul\":1267:1287   */\n      shl\n        /* \"#utility.yul\":1264:1265   */\n      0x00\n        /* \"#utility.yul\":1257:1288   */\n      mstore\n        /* \"#utility.yul\":1311:1315   */\n      0x12\n        /* \"#utility.yul\":1308:1309   */\n      0x04\n        /* \"#utility.yul\":1301:1316   */\n      mstore\n        /* \"#utility.yul\":1339:1343   */\n      0x24\n        /* \"#utility.yul\":1336:1337   */\n      0x00\n        /* \"#utility.yul\":1329:1344   */\n      revert\n        /* \"#utility.yul\":1222:1354   */\n    tag_77:\n      pop\n        /* \"#utility.yul\":1368:1377   */\n      div\n      swap1\n        /* \"#utility.yul\":1166:1383   */\n      jump\t// out\n        /* \"#utility.yul\":1388:1567   */\n    tag_62:\n        /* \"#utility.yul\":1466:1479   */\n      dup1\n      mload\n        /* \"#utility.yul\":1519:1541   */\n      0xffffffffffffffffffff\n        /* \"#utility.yul\":1508:1542   */\n      dup2\n      and\n        /* \"#utility.yul\":1498:1543   */\n      dup2\n      eq\n        /* \"#utility.yul\":1488:1561   */\n      tag_79\n      jumpi\n        /* \"#utility.yul\":1557:1558   */\n      0x00\n        /* \"#utility.yul\":1554:1555   */\n      dup1\n        /* \"#utility.yul\":1547:1559   */\n      revert\n        /* \"#utility.yul\":1488:1561   */\n    tag_79:\n        /* \"#utility.yul\":1388:1567   */\n      swap2\n      swap1\n      pop\n      jump\t// out\n        /* \"#utility.yul\":1572:2045   */\n    tag_50:\n        /* \"#utility.yul\":1675:1681   */\n      0x00\n        /* \"#utility.yul\":1683:1689   */\n      dup1\n        /* \"#utility.yul\":1691:1697   */\n      0x00\n        /* \"#utility.yul\":1699:1705   */\n      dup1\n        /* \"#utility.yul\":1707:1713   */\n      0x00\n        /* \"#utility.yul\":1760:1763   */\n      0xa0\n        /* \"#utility.yul\":1748:1757   */\n      dup7\n        /* \"#utility.yul\":1739:1746   */\n      dup9\n        /* \"#utility.yul\":1735:1758   */\n      sub\n        /* \"#utility.yul\":1731:1764   */\n      slt\n        /* \"#utility.yul\":1728:1781   */\n      iszero\n      tag_81\n      jumpi\n        /* \"#utility.yul\":1777:1778   */\n      0x00\n        /* \"#utility.yul\":1774:1775   */\n      dup1\n        /* \"#utility.yul\":1767:1779   */\n      revert\n        /* \"#utility.yul\":1728:1781   */\n    tag_81:\n        /* \"#utility.yul\":1800:1839   */\n      tag_82\n        /* \"#utility.yul\":1829:1838   */\n      dup7\n        /* \"#utility.yul\":1800:1839   */\n      tag_62\n      jump\t// in\n    tag_82:\n        /* \"#utility.yul\":1790:1839   */\n      swap5\n      pop\n        /* \"#utility.yul\":1879:1881   */\n      0x20\n        /* \"#utility.yul\":1868:1877   */\n      dup7\n        /* \"#utility.yul\":1864:1882   */\n      add\n        /* \"#utility.yul\":1858:1883   */\n      mload\n        /* \"#utility.yul\":1848:1883   */\n      swap4\n      pop\n        /* \"#utility.yul\":1923:1925   */\n      0x40\n        /* \"#utility.yul\":1912:1921   */\n      dup7\n        /* \"#utility.yul\":1908:1926   */\n      add\n        /* \"#utility.yul\":1902:1927   */\n      mload\n        /* \"#utility.yul\":1892:1927   */\n      swap3\n      pop\n        /* \"#utility.yul\":1967:1969   */\n      0x60\n        /* \"#utility.yul\":1956:1965   */\n      dup7\n        /* \"#utility.yul\":1952:1970   */\n      add\n        /* \"#utility.yul\":1946:1971   */\n      mload\n        /* \"#utility.yul\":1936:1971   */\n      swap2\n      pop\n        /* \"#utility.yul\":1990:2039   */\n      tag_83\n        /* \"#utility.yul\":2034:2037   */\n      0x80\n        /* \"#utility.yul\":2023:2032   */\n      dup8\n        /* \"#utility.yul\":2019:2038   */\n      add\n        /* \"#utility.yul\":1990:2039   */\n      tag_62\n      jump\t// in\n    tag_83:\n        /* \"#utility.yul\":1980:2039   */\n      swap1\n      pop\n        /* \"#utility.yul\":1572:2045   */\n      swap3\n      swap6\n      pop\n      swap3\n      swap6\n      swap1\n      swap4\n      pop\n      jump\t// out\n        /* \"#utility.yul\":2050:2287   */\n    tag_52:\n        /* \"#utility.yul\":2122:2131   */\n      dup1\n      dup3\n      mul\n        /* \"#utility.yul\":2089:2096   */\n      0x00\n        /* \"#utility.yul\":2147:2156   */\n      dup3\n      slt\n      shl(0xff, 0x01)\n        /* \"#utility.yul\":2158:2176   */\n      dup5\n      eq\n        /* \"#utility.yul\":2143:2177   */\n      and\n        /* \"#utility.yul\":2140:2200   */\n      iszero\n      tag_86\n      jumpi\n        /* \"#utility.yul\":2180:2198   */\n      tag_86\n      tag_61\n      jump\t// in\n    tag_86:\n        /* \"#utility.yul\":2253:2254   */\n      dup2\n        /* \"#utility.yul\":2244:2251   */\n      dup2\n        /* \"#utility.yul\":2239:2255   */\n      sdiv\n        /* \"#utility.yul\":2236:2237   */\n      dup4\n        /* \"#utility.yul\":2233:2256   */\n      eq\n        /* \"#utility.yul\":2229:2230   */\n      dup3\n        /* \"#utility.yul\":2222:2231   */\n      iszero\n        /* \"#utility.yul\":2219:2257   */\n      or\n        /* \"#utility.yul\":2209:2281   */\n      tag_75\n      jumpi\n        /* \"#utility.yul\":2261:2279   */\n      tag_75\n      tag_61\n      jump\t// in\n        /* \"#utility.yul\":2643:2768   */\n    tag_60:\n        /* \"#utility.yul\":2708:2717   */\n      dup1\n      dup3\n      add\n        /* \"#utility.yul\":2729:2739   */\n      dup1\n      dup3\n      gt\n        /* \"#utility.yul\":2726:2762   */\n      iszero\n      tag_75\n      jumpi\n        /* \"#utility.yul\":2742:2760   */\n      tag_75\n      tag_61\n      jump\t// in\n\n    auxdata: 0xa26469706673582212201de4f6a9ca48b17fe4f512e5af7b73d55fe8ca4111b8006d81f374980b4b076e64736f6c63430008120033\n}\n",
				"bytecode": {
					"linkReferences": {},
					"object": "6080604052674563918244f4000060005534801561001c57600080fd5b506104af8061002c6000396000f3fe6080604052600436106100555760003560e01c8063098de8201461005a5780630d8e6e2c146100825780636a11f733146100975780636e5b6b28146100c457806398d5fdca146100e4578063b60d4288146100f9575b600080fd5b34801561006657600080fd5b5061007060005481565b60405190815260200160405180910390f35b34801561008e57600080fd5b50610070610103565b3480156100a357600080fd5b506100706100b2366004610310565b60026020526000908152604090205481565b3480156100d057600080fd5b506100706100df366004610340565b610185565b3480156100f057600080fd5b506100706101b9565b610101610255565b005b60008073694aa1769357215de4fac081bf1f309adc3253069050806001600160a01b03166354fd4d506040518163ffffffff1660e01b8152600401602060405180830381865afa15801561015b573d6000803e3d6000fd5b505050506040513d601f19601f8201168201806040525081019061017f9190610359565b91505090565b6000806101906101b9565b90506000670de0b6b3a76400006101a78584610388565b6101b191906103a5565b949350505050565b60008073694aa1769357215de4fac081bf1f309adc32530690506000816001600160a01b031663feaf968c6040518163ffffffff1660e01b815260040160a060405180830381865afa158015610213573d6000803e3d6000fd5b505050506040513d601f19601f8201168201806040525081019061023791906103e6565b505050915050806402540be40061024e9190610436565b9250505090565b60005461026134610185565b10156102ac5760405162461bcd60e51b81526020600482015260166024820152750c8d2c8dc4ee840e6cadcc840cadcdeeaced0408aa8960531b604482015260640160405180910390fd5b600180548082019091557fb10e2d527612073b26eecdfd717e6a320cf44b4afac2b0732d9fcbe2b7fa0cf60180546001600160a01b0319163390811790915560009081526002602052604081208054349290610309908490610466565b9091555050565b60006020828403121561032257600080fd5b81356001600160a01b038116811461033957600080fd5b9392505050565b60006020828403121561035257600080fd5b5035919050565b60006020828403121561036b57600080fd5b5051919050565b634e487b7160e01b600052601160045260246000fd5b808202811582820484141761039f5761039f610372565b92915050565b6000826103c257634e487b7160e01b600052601260045260246000fd5b500490565b805169ffffffffffffffffffff811681146103e157600080fd5b919050565b600080600080600060a086880312156103fe57600080fd5b610407866103c7565b945060208601519350604086015192506060860151915061042a608087016103c7565b90509295509295909350565b80820260008212600160ff1b8414161561045257610452610372565b818105831482151761039f5761039f610372565b8082018082111561039f5761039f61037256fea26469706673582212201de4f6a9ca48b17fe4f512e5af7b73d55fe8ca4111b8006d81f374980b4b076e64736f6c63430008120033",
					"opcodes": "PUSH1 0x80 PUSH1 0x40 MSTORE PUSH8 0x4563918244F40000 PUSH1 0x0 SSTORE CALLVALUE DUP1 ISZERO PUSH2 0x1C JUMPI PUSH1 0x0 DUP1 REVERT JUMPDEST POP PUSH2 0x4AF DUP1 PUSH2 0x2C PUSH1 0x0 CODECOPY PUSH1 0x0 RETURN INVALID PUSH1 0x80 PUSH1 0x40 MSTORE PUSH1 0x4 CALLDATASIZE LT PUSH2 0x55 JUMPI PUSH1 0x0 CALLDATALOAD PUSH1 0xE0 SHR DUP1 PUSH4 0x98DE820 EQ PUSH2 0x5A JUMPI DUP1 PUSH4 0xD8E6E2C EQ PUSH2 0x82 JUMPI DUP1 PUSH4 0x6A11F733 EQ PUSH2 0x97 JUMPI DUP1 PUSH4 0x6E5B6B28 EQ PUSH2 0xC4 JUMPI DUP1 PUSH4 0x98D5FDCA EQ PUSH2 0xE4 JUMPI DUP1 PUSH4 0xB60D4288 EQ PUSH2 0xF9 JUMPI JUMPDEST PUSH1 0x0 DUP1 REVERT JUMPDEST CALLVALUE DUP1 ISZERO PUSH2 0x66 JUMPI PUSH1 0x0 DUP1 REVERT JUMPDEST POP PUSH2 0x70 PUSH1 0x0 SLOAD DUP2 JUMP JUMPDEST PUSH1 0x40 MLOAD SWAP1 DUP2 MSTORE PUSH1 0x20 ADD PUSH1 0x40 MLOAD DUP1 SWAP2 SUB SWAP1 RETURN JUMPDEST CALLVALUE DUP1 ISZERO PUSH2 0x8E JUMPI PUSH1 0x0 DUP1 REVERT JUMPDEST POP PUSH2 0x70 PUSH2 0x103 JUMP JUMPDEST CALLVALUE DUP1 ISZERO PUSH2 0xA3 JUMPI PUSH1 0x0 DUP1 REVERT JUMPDEST POP PUSH2 0x70 PUSH2 0xB2 CALLDATASIZE PUSH1 0x4 PUSH2 0x310 JUMP JUMPDEST PUSH1 0x2 PUSH1 0x20 MSTORE PUSH1 0x0 SWAP1 DUP2 MSTORE PUSH1 0x40 SWAP1 KECCAK256 SLOAD DUP2 JUMP JUMPDEST CALLVALUE DUP1 ISZERO PUSH2 0xD0 JUMPI PUSH1 0x0 DUP1 REVERT JUMPDEST POP PUSH2 0x70 PUSH2 0xDF CALLDATASIZE PUSH1 0x4 PUSH2 0x340 JUMP JUMPDEST PUSH2 0x185 JUMP JUMPDEST CALLVALUE DUP1 ISZERO PUSH2 0xF0 JUMPI PUSH1 0x0 DUP1 REVERT JUMPDEST POP PUSH2 0x70 PUSH2 0x1B9 JUMP JUMPDEST PUSH2 0x101 PUSH2 0x255 JUMP JUMPDEST STOP JUMPDEST PUSH1 0x0 DUP1 PUSH20 0x694AA1769357215DE4FAC081BF1F309ADC325306 SWAP1 POP DUP1 PUSH1 0x1 PUSH1 0x1 PUSH1 0xA0 SHL SUB AND PUSH4 0x54FD4D50 PUSH1 0x40 MLOAD DUP2 PUSH4 0xFFFFFFFF AND PUSH1 0xE0 SHL DUP2 MSTORE PUSH1 0x4 ADD PUSH1 0x20 PUSH1 0x40 MLOAD DUP1 DUP4 SUB DUP2 DUP7 GAS STATICCALL ISZERO DUP1 ISZERO PUSH2 0x15B JUMPI RETURNDATASIZE PUSH1 0x0 DUP1 RETURNDATACOPY RETURNDATASIZE PUSH1 0x0 REVERT JUMPDEST POP POP POP POP PUSH1 0x40 MLOAD RETURNDATASIZE PUSH1 0x1F NOT PUSH1 0x1F DUP3 ADD AND DUP3 ADD DUP1 PUSH1 0x40 MSTORE POP DUP2 ADD SWAP1 PUSH2 0x17F SWAP2 SWAP1 PUSH2 0x359 JUMP JUMPDEST SWAP2 POP POP SWAP1 JUMP JUMPDEST PUSH1 0x0 DUP1 PUSH2 0x190 PUSH2 0x1B9 JUMP JUMPDEST SWAP1 POP PUSH1 0x0 PUSH8 0xDE0B6B3A7640000 PUSH2 0x1A7 DUP6 DUP5 PUSH2 0x388 JUMP JUMPDEST PUSH2 0x1B1 SWAP2 SWAP1 PUSH2 0x3A5 JUMP JUMPDEST SWAP5 SWAP4 POP POP POP POP JUMP JUMPDEST PUSH1 0x0 DUP1 PUSH20 0x694AA1769357215DE4FAC081BF1F309ADC325306 SWAP1 POP PUSH1 0x0 DUP2 PUSH1 0x1 PUSH1 0x1 PUSH1 0xA0 SHL SUB AND PUSH4 0xFEAF968C PUSH1 0x40 MLOAD DUP2 PUSH4 0xFFFFFFFF AND PUSH1 0xE0 SHL DUP2 MSTORE PUSH1 0x4 ADD PUSH1 0xA0 PUSH1 0x40 MLOAD DUP1 DUP4 SUB DUP2 DUP7 GAS STATICCALL ISZERO DUP1 ISZERO PUSH2 0x213 JUMPI RETURNDATASIZE PUSH1 0x0 DUP1 RETURNDATACOPY RETURNDATASIZE PUSH1 0x0 REVERT JUMPDEST POP POP POP POP PUSH1 0x40 MLOAD RETURNDATASIZE PUSH1 0x1F NOT PUSH1 0x1F DUP3 ADD AND DUP3 ADD DUP1 PUSH1 0x40 MSTORE POP DUP2 ADD SWAP1 PUSH2 0x237 SWAP2 SWAP1 PUSH2 0x3E6 JUMP JUMPDEST POP POP POP SWAP2 POP POP DUP1 PUSH5 0x2540BE400 PUSH2 0x24E SWAP2 SWAP1 PUSH2 0x436 JUMP JUMPDEST SWAP3 POP POP POP SWAP1 JUMP JUMPDEST PUSH1 0x0 SLOAD PUSH2 0x261 CALLVALUE PUSH2 0x185 JUMP JUMPDEST LT ISZERO PUSH2 0x2AC JUMPI PUSH1 0x40 MLOAD PUSH3 0x461BCD PUSH1 0xE5 SHL DUP2 MSTORE PUSH1 0x20 PUSH1 0x4 DUP3 ADD MSTORE PUSH1 0x16 PUSH1 0x24 DUP3 ADD MSTORE PUSH22 0xC8D2C8DC4EE840E6CADCC840CADCDEEACED0408AA89 PUSH1 0x53 SHL PUSH1 0x44 DUP3 ADD MSTORE PUSH1 0x64 ADD PUSH1 0x40 MLOAD DUP1 SWAP2 SUB SWAP1 REVERT JUMPDEST PUSH1 0x1 DUP1 SLOAD DUP1 DUP3 ADD SWAP1 SWAP2 SSTORE PUSH32 0xB10E2D527612073B26EECDFD717E6A320CF44B4AFAC2B0732D9FCBE2B7FA0CF6 ADD DUP1 SLOAD PUSH1 0x1 PUSH1 0x1 PUSH1 0xA0 SHL SUB NOT AND CALLER SWAP1 DUP2 OR SWAP1 SWAP2 SSTORE PUSH1 0x0 SWAP1 DUP2 MSTORE PUSH1 0x2 PUSH1 0x20 MSTORE PUSH1 0x40 DUP2 KECCAK256 DUP1 SLOAD CALLVALUE SWAP3 SWAP1 PUSH2 0x309 SWAP1 DUP5 SWAP1 PUSH2 0x466 JUMP JUMPDEST SWAP1 SWAP2 SSTORE POP POP JUMP JUMPDEST PUSH1 0x0 PUSH1 0x20 DUP3 DUP5 SUB SLT ISZERO PUSH2 0x322 JUMPI PUSH1 0x0 DUP1 REVERT JUMPDEST DUP2 CALLDATALOAD PUSH1 0x1 PUSH1 0x1 PUSH1 0xA0 SHL SUB DUP2 AND DUP2 EQ PUSH2 0x339 JUMPI PUSH1 0x0 DUP1 REVERT JUMPDEST SWAP4 SWAP3 POP POP POP JUMP JUMPDEST PUSH1 0x0 PUSH1 0x20 DUP3 DUP5 SUB SLT ISZERO PUSH2 0x352 JUMPI PUSH1 0x0 DUP1 REVERT JUMPDEST POP CALLDATALOAD SWAP2 SWAP1 POP JUMP JUMPDEST PUSH1 0x0 PUSH1 0x20 DUP3 DUP5 SUB SLT ISZERO PUSH2 0x36B JUMPI PUSH1 0x0 DUP1 REVERT JUMPDEST POP MLOAD SWAP2 SWAP1 POP JUMP JUMPDEST PUSH4 0x4E487B71 PUSH1 0xE0 SHL PUSH1 0x0 MSTORE PUSH1 0x11 PUSH1 0x4 MSTORE PUSH1 0x24 PUSH1 0x0 REVERT JUMPDEST DUP1 DUP3 MUL DUP2 ISZERO DUP3 DUP3 DIV DUP5 EQ OR PUSH2 0x39F JUMPI PUSH2 0x39F PUSH2 0x372 JUMP JUMPDEST SWAP3 SWAP2 POP POP JUMP JUMPDEST PUSH1 0x0 DUP3 PUSH2 0x3C2 JUMPI PUSH4 0x4E487B71 PUSH1 0xE0 SHL PUSH1 0x0 MSTORE PUSH1 0x12 PUSH1 0x4 MSTORE PUSH1 0x24 PUSH1 0x0 REVERT JUMPDEST POP DIV SWAP1 JUMP JUMPDEST DUP1 MLOAD PUSH10 0xFFFFFFFFFFFFFFFFFFFF DUP2 AND DUP2 EQ PUSH2 0x3E1 JUMPI PUSH1 0x0 DUP1 REVERT JUMPDEST SWAP2 SWAP1 POP JUMP JUMPDEST PUSH1 0x0 DUP1 PUSH1 0x0 DUP1 PUSH1 0x0 PUSH1 0xA0 DUP7 DUP9 SUB SLT ISZERO PUSH2 0x3FE JUMPI PUSH1 0x0 DUP1 REVERT JUMPDEST PUSH2 0x407 DUP7 PUSH2 0x3C7 JUMP JUMPDEST SWAP5 POP PUSH1 0x20 DUP7 ADD MLOAD SWAP4 POP PUSH1 0x40 DUP7 ADD MLOAD SWAP3 POP PUSH1 0x60 DUP7 ADD MLOAD SWAP2 POP PUSH2 0x42A PUSH1 0x80 DUP8 ADD PUSH2 0x3C7 JUMP JUMPDEST SWAP1 POP SWAP3 SWAP6 POP SWAP3 SWAP6 SWAP1 SWAP4 POP JUMP JUMPDEST DUP1 DUP3 MUL PUSH1 0x0 DUP3 SLT PUSH1 0x1 PUSH1 0xFF SHL DUP5 EQ AND ISZERO PUSH2 0x452 JUMPI PUSH2 0x452 PUSH2 0x372 JUMP JUMPDEST DUP2 DUP2 SDIV DUP4 EQ DUP3 ISZERO OR PUSH2 0x39F JUMPI PUSH2 0x39F PUSH2 0x372 JUMP JUMPDEST DUP1 DUP3 ADD DUP1 DUP3 GT ISZERO PUSH2 0x39F JUMPI PUSH2 0x39F PUSH2 0x372 JUMP INVALID LOG2 PUSH5 0x6970667358 0x22 SLT KECCAK256 SAR 0xE4 0xF6 0xA9 0xCA BASEFEE 0xB1 PUSH32 0xE4F512E5AF7B73D55FE8CA4111B8006D81F374980B4B076E64736F6C63430008 SLT STOP CALLER "
				},
				"gasEstimates": {
					"creation": {
						"codeDepositCost": "239800",
						"executionCost": "22387",
						"totalCost": "262187"
					},
					"external": {
						"addressToAmoundFunded(address)": "2494",
						"fund()": "infinite",
						"getConversionRate(uint256)": "infinite",
						"getPrice()": "infinite",
						"getVersion()": "infinite",
						"minimumUsd()": "2261"
					}
				},
				"methodIdentifiers": {
					"addressToAmoundFunded(address)": "6a11f733",
					"fund()": "b60d4288",
					"getConversionRate(uint256)": "6e5b6b28",
					"getPrice()": "98d5fdca",
					"getVersion()": "0d8e6e2c",
					"minimumUsd()": "098de820"
				}
			},
			"storageLayout": {
				"storage": [
					{
						"astId": 52,
						"contract": "contracts/FundMe.sol:FundMe",
						"label": "minimumUsd",
						"offset": 0,
						"slot": "0",
						"type": "t_uint256"
					},
					{
						"astId": 55,
						"contract": "contracts/FundMe.sol:FundMe",
						"label": "funders",
						"offset": 0,
						"slot": "1",
						"type": "t_array(t_address)dyn_storage"
					},
					{
						"astId": 59,
						"contract": "contracts/FundMe.sol:FundMe",
						"label": "addressToAmoundFunded",
						"offset": 0,
						"slot": "2",
						"type": "t_mapping(t_address,t_uint256)"
					}
				],
				"types": {
					"t_address": {
						"encoding": "inplace",
						"label": "address",
						"numberOfBytes": "20"
					},
					"t_array(t_address)dyn_storage": {
						"base": "t_address",
						"encoding": "dynamic_array",
						"label": "address[]",
						"numberOfBytes": "32"
					},
					"t_mapping(t_address,t_uint256)": {
						"encoding": "mapping",
						"key": "t_address",
						"label": "mapping(address => uint256)",
						"numberOfBytes": "32",
						"value": "t_uint256"
					},
					"t_uint256": {
						"encoding": "inplace",
						"label": "uint256",
						"numberOfBytes": "32"
					}
				}
			},
			"userdoc": {
				"kind": "user",
				"methods": {},
				"version": 1
			}
		}
	}
}